:020000040000FA
:200000003DB8F3960000000000020000200B03000000000002030700000000000000000026
:200020000000000000000000000000000000000000000000000000000000000000000000C0
:200040000000000000000000000000000000000000000000000000000000000000000000A0
:20006000000000000000000000000000000000000000000000000000000000000000000080
:20008000000000000000000000000000000000000000000000000000000000000000000060
:2000A000000000000000000000000000000000000000000000000000000000000000000040
:2000C000000000000000000000000000000000000000000000000000000000000000000020
:2000E000000000000000000000000000000000000000000000000000000000000000000000
:200100000000000000000000000000000000000000000000000000000000000000000000DF
:200120000000000000000000000000000000000000000000000000000000000000000000BF
:2001400000000000000000000000000000000000000000000000000000000000000000009F
:2001600000000000000000000000000000000000000000000000000000000000000000007F
:2001800000000000000000000000000000000000000000000000000000000000000000005F
:2001A00000000000000000000000000000000000000000000000000000000000000000003F
:2001C00000000000000000000000000000000000000000000000000000000000000000001F
:2001E0000000000000000000000000000000000000000000000000000000000000000000FF
:2002000098800020F9B8010099F3020085B7010085B7010085B7010085B7010085B7010035
:2002200085B7010085B7010085B701009DB3010085B7010085B7010041B3010085F30200CD
:20024000B9B8010091230300B9B80100B9B80100B9B80100B9B80100B9B80100B9B80100C9
:20026000B9B80100B9B80100B9B80100B9B80100B9B80100B9B80100B9B80100B9B80100EE
:20028000B9B80100B9B80100B9B80100B9B80100B9B80100B9B80100B9B80100B9B80100CE
:2002A000B9B80100B9B80100B9B80100B9B80100B9B80100B9B80100B9B80100B9B80100AE
:2002C000B9B80100B9B80100B9B80100B9B80100B9B80100B9B80100B9B80100FFFFFFFF04
:2002E0007BB972B90029BEBF00204FF0004106E008BF00281CBF6FF000414FF0FF3000F0AB
:20030000D1B9ADF1080C6DE904CE002909DB002B1ADB00F061F8DDF804E0DDE9022304B0AB
:200320007047404261EB4101002B1BDB00F054F8DDF804E0DDE9022304B0404261EB410131
:20034000524263EB43037047524263EB430300F043F8DDF804E0DDE9022304B0404261EB45
:2003600041017047524263EB430300F035F8DDF804E0DDE9022304B0524263EB4303704708
:2003800053B94AB9002908BF00281CBF4FF0FF314FF0FF3000F086B9ADF1080C6DE904CE75
:2003A00000F01AF8DDF804E0DDE9022304B07047430803F05533C01A830803F0333300F0B8
:2003C0003330184400EB101000F00F3000EB002000EB0040000E70472DE9F047089E0446EC
:2003E0008846002B4BD18A42154667D9B2FA82F24AB1C2F1200701FA02F320FA07F79540AF
:2004000047EA030894404FEA154E230CB8FBFEF71FFA85FC0EFB178843EA084307FB0CF1A0
:20042000994209D9EB1807F1FF3080F01B81994240F21881023F2B445B1AA4B2B3FBFEF00C
:200440000EFB103344EA034400FB0CFCA44509D92C1900F1FF3380F00781A44540F204810D
:2004600002382C4440EA0740A4EB0C0400271EB1D4400023C6E900433946BDE8F0878B423B
:2004800009D9002E00F0EB800027C6E9000138463946BDE8F087B3FA83F7002F47D18B42C6
:2004A00002D3824200F2FA80841A61EB030301209846002EE0D0C6E90048DDE702B9FFDE17
:2004C000B2FA82F2002A40F08F80491B4FEA154E1FFA85F80127B1FBFEFC230C0EFB1C11CA
:2004E00043EA014308FB0CF1994207D9EB180CF1FF3002D2994200F2CD808446591AA3B221
:20050000B1FBFEF00EFB101443EA044408FB00F8A04507D92C1900F1FF3302D2A04500F2CC
:20052000B6801846A4EB080440EA0C409FE7C7F1200CBB4022FA0CFE4EEA030E01FA07F44C
:2005400020FA0CF521FA0CF34FEA1E482543B3FBF8F92C0C08FB19331FFA8EFA44EA034324
:2005600009FB0AF49C4202FA07F200FA07F10BD91EEB030309F1FF3080F087809C4240F211
:200580008480A9F1020973441B1BADB2B3FBF8F008FB103345EA034400FB0AFAA24508D94D
:2005A0001EEB040400F1FF336BD2A24569D90238744440EA0940A0FB0289A4EB0A044C45E8
:2005C000C2464B4654D351D0002E69D0B1EB0A0564EB030404FA0CFCFD40FC404CEA050513
:2005E000C6E90054002747E7C2F1200320FA03F7954001FA02F021FA03F34FEA154E3843CF
:20060000010CB3FBFEF71FFA85F80EFB173341EA034107FB08F38B4204FA02F407D96918B3
:2006200007F1FF3C2FD28B422DD9023F2944CB1A81B2B3FBFEF00EFB103341EA034100FB9B
:2006400008F38B4207D9691800F1FF3C17D28B4215D902382944C91A40EA07473BE7374600
:20066000304609E70746E7E61846FBE64145ABD2B8EB020A69EB0E0201381346A4E76046E2
:20068000E9E7184695E76746D1E781467CE702382C4447E7ACF1020C2B442FE7384608E7AC
:2006A0003746E9E6704700BF38B5114C0546202204EB4010002104EB451424F0EBFF4FF6B6
:2006C000FF73238208A3D3E90023C4E90023094A01201368A840C04303401360064A13684E
:2006E0001840106038BD00BF8011C9FF0000000008010020481000207810002000000000DC
:200700002DE9F041461C86B01D4601A9304690460D9F314C08F042FE284621F0FEFFA379A8
:20072000834250D1013B032B4DD8DFE803F0022A2F33284621F0ABFE0546002D43D03046D3
:2007400009F02EF8054600283DD124482AF004FD06F074FB0C9A63793B6001211170204AE3
:20076000257013701AA5D5E900452AF04EFD3A681C4B061903EB421341EB0507C3E9006784
:2007800021E02946304606F063FBD5E7284621F0FAFDD1E72A464146304606F0F9FB054693
:2007A00006F050FC0428C8D1D4F801006179FB2208F0D8FE0023237006F040FB06F0DAFBEE
:2007C00006482AF0C9FC06B0BDE8F081AFF300808011C9FFFFFFFFFFBC4E00204C10002003
:2007E000B74E0020080100202DE9F04F93B01BF027FBC7B237B31BF043FB5FFA80FA1BF05C
:20080000C3FBC5B21BF0CAFB1BF04EFD1BF03AFD1BF084FBC6B2854C1BF0FCFA1BF0C4FB9D
:200820001BF0AAFB1BF034FD1BF070FB637D052B01F23681DFE813F05F00A8000A002A0790
:200840002A072A073E463D46BA46E4E7012363751BF090FC054696201BF0B6FB237D013B38
:20086000032B11D8DFE803F002254A4A00231A46194618461BF022FB1BF010FB1BF0A0FAC9
:200880001BF0D4FA044628B1404080F311884FF0040002DF014627F099FECB350544214607
:2008A000204627F08FFE281A1BF01EFC1BF054FC21E0002319461A4618461BF0FFFA94F89B
:2008C0004121D4F83C3153F8220008301BF078FA1BF0ACFA04460028D6D1014627F076FEBF
:2008E000CB3505442146204627F06CFE281A1BF0FBFB1BF0FBFA13B0BDE8F08FD4F8143126
:2009000093F8382093F83A000021D30900F00700C2F3C2021BF0D2FA94F84121D4F83C31C4
:20092000D4F8140153F82210083127F0F1FA1BF07DFA0028A8D1D4F8143193F83A00012103
:2009400000F0070027F042FED4F8142192F83A3003F00703A335022B054413D0042B0CBF2C
:200960004FF4BC702820054492F83800C109C0F3C20027F027FE281A1BF0B6FB012018F013
:200980006DFBB8E71820EEE727B9032363751BF02FFAB0E7237DDBB2022B00F04782032B59
:2009A00000F00783012B7FF46FAFBAF1000FECD01BF074FA94F878202A234FF0270919FB1D
:2009C0000239027802F00F03032B064604EB09072ED143780C2B2BD114F8093003F00F01B0
:2009E000012925D094F82910490600D505B3C3F38013B3EBD21F1BD1062206F10801B81C77
:200A000024F0F4FDA0B9032363751BF061FA94F8C800272303FB00407A301BF0D7F91BF0A8
:200A200005FA00283FF467AF2EE700BF3C2A0020337803F00F03052BA7D17378222BA4D1E7
:200A400014F8093003F00F03012B40F0C8813146384627F085FA88B1337814F80920C3F34D
:200A60008013B3EBD21F40F0B8810622B11C07F1080024F0BBFDB0FA80F04009002884D04B
:200A800094F8823133B194F8803194F881219A427FF47BAFD4F8CC30002B3FF476AF0420E0
:200AA00017F098FE074600283FF46FAF4FF0040A84F815A01BF09CF9D4F8CC50D4F80811E8
:200AC00000234FF4A4722846C4F8CC3027F028F805F1100B2884032206F1120105F1140047
:200AE00024F0ABFD05F11708524606F10E01584624F0A3FD052206F11E01404624F09DFDC4
:200B00000521404627F04AF86B7F00F03F0060F3050301286B777FF638AF96F82330C3F35E
:200B20000403AB77053B0B2B3FF62FAF338BAB8440F2E24808FB03F8F27EB37E43EA0223C9
:200B4000EB845246594605F1640024F076FDB38B42F2107202FB0383013BB3FBF8F3EB8750
:200B6000A94B4344B3FBF8F3A5F842302B8CFB80082331463B714FF480733B8111F8023B9A
:200B8000C3F38013BB72062207F10B0024F055FD727E337E43EA02237B82F27EB37E43EA90
:200BA0000223BB82727F337F43EA0223FB8296F82330C3F342133B76288C18F05DF818F0AB
:200BC00091FB032017F006FE00283FF45DAE2B8CC3800D230371337813F020030ED06A7CC2
:200BE0002B7CE97C43EA0223AA7C42EA0122697F534041F04001EB8369770123037218F046
:200C000071FB96F8232095F848308049520962F3840385F848307E4B31F8122093F820319D
:200C200031F81330134408FB03F303F57423794A03F23F23B3FBF2F3EB644FEA5803963B08
:200C40002B65737D40F2E24A00270AFB03F32B663946EF65384627F0B7FC6F49834600F275
:200C6000524067A3D3E90023A0FB0101FFF788FB674BD3F884316B602722272B20F07F407C
:200C80002A601A46EB6CE86038BF2722AF600B92A8EB03081BF068FA0C90F08A39460AFB3A
:200CA00000AA384627F08EFC0C9BAAF1300A9A44AAEB000A0121384627F09BFC3A46012182
:200CC0000C90384615F0B4FC514B9E681BF04CFA514900F596704AA3D3E90023A0FB010154
:200CE000FFF74EFB0B9AB61A40F2D44220F07F4301924A4A0092334405223946384616F0CC
:200D0000BFFA40F2D54117F0F5FF14F80930404C03F00F03012BAAEB0B0BDFF8FCA006D1E0
:200D200000973B4603223946384616F06FFAA8FB0A8933A3D3E9002340464946FFF720FBF9
:200D4000A3680B9A95F820409B1A0D9340F2EC430893334BCDE90653324B0593EB68134459
:200D60000646049320F07F402F4A07230021434302FB0133A0FB02121A440846B8EB000048
:200D8000114669EB010100254FF47A7200230395FFF7F6FA26F07F4619A3D3E900230290A9
:200DA000ABFB0A010196FFF7EBFA073420F07F40E4B200900D9B22462946284616F094F960
:200DC00030F002007FF460AD0C9B002B3FF493AD0122114615F02CFC8DE500204EE694F833
:200DE0002930DB0900D035B13146384627F0B8F800F0010042E62846FAE700BFAFF30080FB
:200E00008D49FD1A07000000FF596202266503003C2A002040420F0000CA9A3BF52C0200BB
:200E2000B51F0300C1BA00008D49FD1ABAF1000F76D094F8E130D80601D5002D70D094F829
:200E40004121D4F83C3153F822502B7A13F00F0202D0062A40F02686697A252943D894F8CB
:200E6000E11009073FD5D4F8001100293BD1304618F060FA0746002852D11BF00FF803784E
:200E8000C249032262F3030303702A7ADBB2C2F3801262F3C7130C22427094F8E120D20965
:200EA00062F386130646062200F8023B24F0C5FB062205F10A0106F1080024F0BEFB94F846
:200EC000E03043F0020384F8E0309620022363751BF07AF838461AF0E5FF30461AF076FFAD
:200EE0001BF03AF99BE513F00D0F01D0062A0CD1697A252909D800216B7A8BB1D4F80031E6
:200F000073B9304618F016FA0AE0012A13D02B7A03F00F03072B31D194F8E1305F07EAD183
:200F2000032363751AF064FF94F8E0306FF3410384F8E030DFE46A7A0C2AE8D194F8E12055
:200F4000DB09B3EBD21F10D094F8E130C3F301139B07DCD595F90830002BD8DA6B7D03F006
:200F6000C003402BD3D10121C6E7062205F11001864824F03BFB0028E6D1BCE7042BCFD138
:200F80006B7A252BCCD894F8E0309807C8D51AF085FF2B7A0278C3F38013B3EBD21FBFD18B
:200FA000062205F10A01083024F020FB0028A2D0B6E700238DF83F3094F8183194F8412190
:200FC000013384F81831D4F83C3153F82290D4F81431022289F80420BAF1000F00F02E82AE
:200FE00093F8462199F8080002F00101C0F38000884219D081F0010161F3000283F84621E1
:20100000227D032A02BF93F8482042F0010283F8482093F84621110600F18480D3F83081BE
:20102000B8F1000F40F083804FF00008D4F8143199F8082093F84631C2F3C002C3F3400342
:201040009A4240F0F381032017F0C4FB002800F0ED8194F8823183B3D4F84C31D4F85021A6
:20106000934205D194F8802194F88111914224D0D4F85021934200F0D98194F8803194F88E
:2010800081219A4200F0D28194F88031D4F8142123B9B4F87E11138C99420ED094F88031A5
:2010A000002B00F0C38194F8803104EB4303B3F87811138C994240F0B98199F80950002D30
:2010C00000F07181D4F8143193F8465115F0100500F048811BF0AEF800283FF4D5AB1BF091
:2010E000C7F80546002840F07481D4F8143193F846315F0700F11E81032363751AF078FE12
:201100001AF094FE054600287FF4BEAB3D21D4F8140126F099FFD4F8140117F0EFFFC4F865
:201120001451D7E06FF3C71283F846217CE793F8457108F1040C0CEB07056E780EB90025F4
:2011400058E092060BD5D3F81D211046D3F82121013042F10001C3F81D01C3F821111CF834
:20116000071001F003010329E9D1EA78152A51D00ED8022A2DD0142AE1D193F8DA20022114
:2011800061F3020283F8DA20D9E700BF1E2B0020162A70D0172AD2D1227D032ACFD1DFF8F3
:2011A000FCC34FF00432CDE910C293F8EA2093F83810C2F38202C1F3C2010A4312A90A4405
:2011C00093F8391012F8082C62F3020183F83910B5E761751AF00CFE1AF028FE00287FF490
:2011E00053AB2979D4F81401132908BF162126F02BFF0125D4F8143193F84521164493F8E7
:201200004421F6B296424FF000023CD283F84561904655E093F8D80093F8D92082428ED065
:2012200093F8DA2002F00705072D88D00121A94011F0680F83D0B3F8DE10D985052DB3F8F5
:20124000E210998601D104219AE7B3F8E410002521B983F8D900A3F8441070E7A3F8DE1044
:2012600065F30202B3F8E610A3F8E450A3F8E21083F8DA20BEE793F8EA20022161F30102EC
:2012800083F8EA2088E7C3D1D3F83061D3F83411A3F844218E42306843D1D3F83811C3F80F
:2012A00030018E4214BFC3F83401C3F83421404608BFC3F83821B54926F014FC4FF000088E
:2012C000002D3FF4B3AED4F8140117F017FF0023C4F814311AF034FF18B91AF025FF1AF0E5
:2012E00029FFAB4BD3F81431002B3FF404ABB8F1000F03D04146188C17F08CFE9DF83F3068
:20130000002B3FF4F8AAD4F81431188C17F0B4FCD4F814311B8CA9F8063017F0E3FFFFF7F3
:20132000EABAD3F83C21C3F83001964208BFC3F83C01C5E799F8083003F00303032B7FF44F
:20134000DBAE1AF0ABFD477806463946C07817F00DFA00283FF4D0AEFA1C314609F108001A
:2013600024F06BF9D4F8140199F8081090F8462112F0040F0FD001F00303032B7FF4BCAE86
:2013800090F91D0099F80B30002802F0400237DB0ABB022B30D111F0030304D0022B3ED85C
:2013A00001238DF83F30D4F8143193F8462182F0020283F84621002D38D0D3F8FC50D3F8A3
:2013C0000061681C46F10001C3F8FC00C3F800112CE00125C6E79A1ED2B2092A0CD840F209
:2013E000052020FA02F2D607D5D46A4A22FA03F3D8077FF581AECEE7112B3FF67DAEF4E7C0
:2014000042B9072BC7D0022BC5D0112B3FF674AE614AEBE79A1E012ABDD90B2BF4E70DF1AE
:201420003F01484618F044FD0028BCD0D4F81431002784F81971A3F8407015E094F81911AD
:2014400009B984F8192194F81971013FFFB284F81971B3F84020B7FA87F77F0912B9D98F12
:20146000A3F840104FF00008D4F8146196F846E14FEADE131EF0800F0B9304D1D6F830010B
:20148000002840F08D8096F8463143F0800386F846311AF0FFFC0378012262F30103002219
:2014A0004270D6F8302103700546DBB2002A69D043F010032B70364E2B78727D6FF34713FA
:2014C0002B70032A4FF00003AB7000F0C880002F40F0C380BAF1000F07D099F80830DA06D3
:2014E00003D46B78002B00F0B880D6F8143193F8A330002B40F0B1800223962073751AF015
:2015000063FDD6F8143193F83A0000F007001AF0C9FC1AF021FED4F814712B7897F84621BA
:2015200097F83810C2F3000262F3C30397F84621C2F3400262F38203C1F3C2062B70C90952
:201540003046B7F82EA01AF0C7FB97F8463172009B065FFA8AF142F0010240F19280043132
:20156000C9B208201AF0FEFB294607F20D101AF03BFE1AF02BFC1AF059FC00283FF4AAAEBA
:20158000FFF782B962F3041394E700BF982B00203C2A002060200200402002000101020122
:2015A00096F8452196F84431011D8D1813B96B7886F844312AB18B5C4FF0010C6CF301035E
:2015C0008B5496F844C1ACEB020C5FFA8CFC85F801C08B5C96F839B06FF304138B540BF024
:2015E000070BB38EBBF1020F15BFDB089B080A3B0B3B9BB21EF0200F18BF043BB6F82EE09A
:2016000018BF9BB2734528BF73469C4581BF6B708B5C43F010038B5403681BB18B5C43F0F5
:2016200010038B54D6F83431002B7FF444AFD6F83C3198423FF43FAF037903F00303032B1B
:2016400006D1C379032B3FF436AF0A2B3FF433AFC6F83801C6F834012DE703237375337D2B
:20166000042B0BD1D6F814310B9993F8462161F3C71283F846211AF0BBFB2BE61AF028FCA8
:2016800049E708201AF06EFB284672E7227D032A3FF6FAA8DFE812F0FC0104004400860081
:2016A000032B09D194F828305E0705D017F0B0FD1AF098FBFFF7FAB81AF054FC637D032BA3
:2016C00056D194F8283013F0400351D160684268556815B1022210A9A847BDF8401040F29F
:2016E0004712B1FBF2F302FB131341F2B9120021069201339A4A05929BB2CDE90311CDE9AA
:201700000111009105220846ADF8403015F036FD30F002032CD0A37C052B29D0FFF7B4B899
:20172000032B19D196201AF04FFC002319461A4618461AF0C3FBD4F83C3194F8412153F80C
:20174000220008301AF03CFB1AF0D0FB012363751AF042FBFFF7AAB81AF004FC637D052B64
:2017600006D10023009304221946184615F04EFD00252575657565741AF0AAFC2A462946A8
:201780002846784B14F07CFF054600287FF47CA82068436829465B68984701221146284663
:2017A000FFF718BBD4F814010028E1D090F8A31081B1237D032B03D090F84830DD0709D5D6
:2017C00026F042FCD4F8140117F098FC0023C4F81431CDE7B0F82AB094F818710BF10106C7
:2017E000B6B2002F00F09980237D032B40F089801AF0A6FC81461AF0A9FCD4F8147197F840
:201800003A3003F00703022BA9EB0009B86D5ED0042B0CBF4FF4BC784FF0280800F1300340
:20182000434499450B93DFF840A14BA3D3E9002350D8A0FB0A01FEF7A3FD0B9B20F07F4543
:20184000A3EB0900A0FB0A0143A3D3E90023FEF797FD20F07F490023BB653B66D7F8303111
:2018600013B9FF2017F0FAFBD4F81431D3F83021002A40D0527912B993F845210AB10022B6
:201880005A85D4F8143100229A87D4F81471B7F84030CBB19E4280F0E7809B1B9BB200224D
:2018A000062BA7F840307A8540F2E180237D032B0AD1BBF1000F40F0DA807A6E12F0010875
:2018C0004FEA520352D17B664FF0000851E04FF01808A3E7A9FB0A01FEF752FD20F07F454E
:2018E00008F130001CA3D3E90023A0FB0A01FEF747FD8146AFE793F84820D107C1D5DA8C1E
:20190000BEE741B190F8483043F0010380F848300025A946B5E70D46FBE7858F85B1AE42EA
:2019200004D2AD1B85873D46A946AEE73E2126F08BFBD4F8140117F0E1FBC4F8147117E7F8
:20194000B0F840100029EFD1C38FA0F840300D46EAE700BFAFF300808D49FD1A0700000053
:20196000252D020058E1002000CA9A3B43F000437B66B7F8443023B19E427BD29E1BA7F848
:20198000446097F86D2097F86C309A4204D097F86E30013B012B05D997F87C2097F87D30D2
:2019A0009A4201D000237B857E8DB8F1000F01D1B34561D00136B6B297F8472112F00203FC
:2019C00064D097F91D306FF34102002B87F8472154DA97F83A00012100F0070026F0F4FD28
:2019E00097F84721BB8E344952074CBFB7F8E020FA8E03F5E37318441044A0FB01012CA325
:201A0000D3E90023FEF7BCFCFB6820F07F4098428BBFC11A1B1A00230021F8604DB9B9F188
:201A2000000F06D129B923B91EB9B8F1000F3FF49FAED4F8142192F820200732D7B21F4AFD
:201A40000697CDE900910021CDE90482CDE902363A462B46084615F091FB30F002033FF42F
:201A600087AEA37C9F4258E608213846A8E64FF001087EE72221F8E746469DE797F8380018
:201A8000C109C0F3C20026F098FDA9E71946C5E7043B012B3EF6F8AE00236375FEF72BBFA2
:201AA00026F0E8FA022AFFF722BA00BFAFF300808D49FD1A0700000000CA9A3B3D2D020050
:201AC0002DE9F04FD34D1C462B7C91B0804689462BB1404080F311884FF0040002DF94F89A
:201AE00020300733DBB22B7494F91D30002B09DAE36C616D02FB03330B44216D63658B4286
:201B000088BF6165278D94F86C303A44678C92B222853A4497B294F86D20934218D194F856
:201B200046A11AF0040A40F0028594F87D1094F87C20914227D00122013B84F86E2084F8FF
:201B40006D3094F86D2094F86C309A4200F0EF84052017F049FC94F8D92094F8D8309A4202
:201B600000F0D08294F8DA3003F00703043B012B00F2C882204617F0CBFF002800F0C28256
:201B800000232B740AE294F8912094F890309A425CD0052017F028FC94F8902094F891302D
:201BA0009B1ADB07CDD594F848B01BF0200B21D084F89120022016F00DFE0646002888D015
:201BC000238CC38002230371037A43F00303037209234372C372082251460C3023F05AFDD2
:201BE000D4F8943033731A0A1B0C7273B37317F079FBA6E7884825F05CFF06460028A0D02D
:201C000094F89130013B84F89130844BC4F89430037943F0030303710923437194F91D30CC
:201C2000002BB4BF0E2308230822C3715946104423F030FDD4F8943033721A0A1B0C7272B5
:201C4000B3723146204626F01BFABCE094F8992094F898309A4256D0052017F0C5FB94F8A8
:201C6000982094F899309B1ADE077FF56AAF94F89A30D80724D4684825F01BFF01460028B5
:201C80003FF45FAF94F89930013B84F8993094F89A3043F0010384F89A30037943F00303A5
:201CA0000371062343710C23C3710A2303721F234372052383724FF0FF33C3720373C1E7F6
:201CC00099077FF506AF84F89920022016F082FD00283FF4FEAE238CC38002230371037A50
:201CE00043F003030372062343720C23C37294F89B300373B4F89C30A0F80D30B4F89E3060
:201D0000A0F80F3073E794F8B12094F8B0309A4200F03381052017F067FBD5F8883113B171
:201D20009C427FF40EAF94F8B23003F00703052B3FF6CFAE01A252F823F000BF55BD000077
:201D4000D1BD000027BF000043BB000043BB000043BB0000304825F0ACFE014600283FF43C
:201D6000F0AE94F8B230042262F3020384F8B230037943F003030371182343710F23C371FB
:201D8000B4F8B4300381B4F8B6304381B4F8B8308381B4F8BA30C38100230374C37403751E
:201DA0004FF0FF33A0F8117043758375C375037643768376C376037743778377204626F0A3
:201DC0005FF9C5F88841B4F84230A4F84430B8E694F8B36026B3104825F06BFE014600289C
:201DE0003FF4AFAE037943F0030303711123C371032343710F23037294F8B33043722046B7
:201E000026F03EF994F8B03084F8B1300023C5F8883196E63C2A0020982B0020AE4101003E
:201E200094F91D30002B3ADB94F87C2094F87D3093427FF486AE94F8B230C4F88860052173
:201E400061F3020394F8BC1084F8B230012384F88C3009B3B4F8B43093FBF1F3013313FB17
:201E600001F3A4F88030B4F8B830A4F88230B4F8BA30A4F8843094F87E30022161F30103A5
:201E800094F8B210C1F3C00161F38203013A84F87E3084F87D2054E6B4F8B630E1E7C0488C
:201EA00025F007FE014600283FF44BAE037943F003030371182343711023C371B4F8B4305E
:201EC0000381B4F8B6304381B4F8B8308381B4F8BA30C38194F8BC300374B4F8BE30A0F895
:201EE0001130B4F8C030A0F81330B4F8C230A0F81530B4F8C430A0F81730B4F8C630A0F8F6
:201F00001930B4F8C830A0F81B30B4F8CA30A0F81D30204626F0B4F894F8B03084F8B13075
:201F2000C5F888610DE694F846311B073FF509AE022016F04FFC00283FF403AE94F8B2300B
:201F4000032262F3020384F8B230238CC38002230371037A13430372182343720F23C3727A
:201F6000B4F8B4308381B4F8B630C381B4F8B8300382B4F8BA30438239E694F8D92094F853
:201F8000D8309A420DD0052017F02EFA204617F0BFFD00283FF4D5AD85F810A001376784D6
:201FA0005FE294F8E92094F8E8309A4200F0BF82052017F019FA94F8EA3003F00302032A90
:201FC0003FF687AD01A151F822F000BFDDBF000043BB000043BB00003DC00000704825F07A
:201FE00068FD014600283FF4ACAD94F8EA3094F83900012262F3010384F8EA30DBB2C3F3C1
:202000008206C3F3421363F3C50094F8382084F8390094F8EB0066F30202C0F3000060F39F
:20202000861284F838200A790E7242F003020A7103224A711622CA714B7203E694F86D206D
:2020400094F86C1091427FF483AD94F8E81084F8E910C3F382018E0742D5022161F3840326
:2020600084F8EA3094F8EA3059098E0741D5022161F3471384F8EA3094F8EA1094F8383036
:20208000C1F38200C3F3C203834294F8703014BF60F384036FF3840384F8703094F83A30F6
:2020A000490903F007038B4294F8703014BF61F347136FF3471384F8703094F8703094F8C7
:2020C000EB1043F00103C1F3400161F3410384F87030013A042384F86E3084F86D2030E58B
:2020E000C80701D50121B9E711F0040118BF0421B4E7C80701D50121BAE711F0040118BF97
:202100000421B5E794F86E30022B00F0CD81042B00F06082012B7FF4DCACD5F888310BB9F7
:20212000C5F8884194F87E3013F003013AD01C4825F0BFFC0146002800F0F98194F87E3087
:2021400002796FF3010384F87E30E38C06333B449BB242F00302A4F8703002710C22427139
:202160000022C27194F88C200272D4F8882040F2E240B2FBF0F2A1F80920B4F88020A1F860
:202180000B20B4F88220A1F80D20B4F88420A1F80F20A1F81130204625F072FFC7E100BFBB
:2021A000982B0020B4F87060BE1BB6B2330400F1BE8194F87C3084F87D3094F86C3084F813
:2021C0006D3094F8B02094F8B130934209D094F8B23003F00703052B04BF84F8B120A4F8A4
:2021E0004410D5F88831D4F880209C4204BF0023C5F88831636A9A4210D1A28C40F2E24350
:202200005A43B4F8843042F2107101FB0323013B93FBF2F3E28F9BB29A4216D0022016F093
:20222000D9FA00283FF455AC238CC3800A23037100230372B4F880304381B4F882308381C2
:20224000B4F88430C38117F04DF8D4E90007002809DA20F00040A3682060A8EB00089F4268
:202260002CBFB8449844A38CB4F880A013FB06F39BB2B3FBFAF291B21AFB01F080B2834272
:202280000B91C94980F0F080C01A40F223124FEAE07C424301FB0C23A0FB01011944C0A3CD
:2022A000D3E90023FEF76CF820F07F4000EB080B238D0B9ADFF818939B1B13442385236802
:2022C0009F4238BF1F46D4F888300C9394F91D300E9740F2E248002B08FB0AF780F2D680CC
:2022E000626DE36CB1490B9803FB162395F8202131F8126094F84820C2F3820231F81220FB
:2023000094F88C1016447E4306F57426A84A08FB01F106F23F26B6FBF2F67A087043963A03
:202320000344E1650021E6642265A166934294BF63656265A0FB090199A3D3E90023FEF7AB
:202340001FF80C9BABEB000BB3FBF8F008FB00F093A3D3E90023A0FB0901FEF711F820F0CD
:202360007F430B93BE1BB4F88230E384B4F88430A4F824A042F2107202FB0373013BB3FB8C
:20238000F7F3E3878B4B3B44B3FBF7F794F87E30A4F842705F0744BF0023A4F840300121B6
:2023A000002026F026F900220F900121104614F03FF994F82070804B0737FFB200210097C5
:2023C0003A46084614F022FF30F0020A7FF481ABA6FB092390469946404671A3D3E9002344
:2023E0004946FDF7CDFF41F624630893734B0E9ACDE90643724B0593E3681A44CDE90C010F
:20240000CDE903A220F07F406E4A07230021434302FB0133A0FB0201B8EB0008194469EBDE
:2024200001094FF47A72002340464946FDF7A8FF0C9B029023F07F4301930B9B00933A4635
:202440005B465146504614F04FFE30F002007FF440AB0F9B1BB10122114614F0E9F80023E5
:202460002B7411B0BDE8F08F0AFB12321FFA82FBABFB010140F2231303FB0B1148A3D3E928
:202480000023FDF77DFFA8EB000B11E70C9944A3D3E90023A1FB0901FDF772FF20F07F40CE
:2024A000431C0B933E465EE794F87030DE0723D5454825F0FEFA0546C8B394F870306FF35F
:2024C000000384F87030E38C06333B44A4F87630037943F003030371082343710123C37114
:2024E000052204F17101083023F0A7F8B4F87630A5F80D3029464EE6B4F87630FB1A1D040D
:2025000015D494F86C3084F86D3004F11705052204F17101284623F090F80521284625F040
:202520003DFB637F60F3050363770123237794F8A12094F8A0309A421ED0052016F054FF9D
:20254000214825F0B6FA0146B0B194F8A03084F8A130037943F00303037102234371C371C6
:2025600094F8A2300372204625F08AFDE38F012B98BF0133A4F84430144B029394F820307D
:2025800003940733DBB20193A36800932246231D4946404616F036FF00E500BFAFF30080ED
:2025A0008D49FD1A070000000054CE092665030040420F00FF596202E12C0200CD2C020017
:2025C000C1BA00008D49FD1A982B00205537020000CA9A3B94F87030D8074CD57B4825F07F
:2025E00068FA05460028A2D094F870306FF3000384F87030DBB2C3F3820656EA531634D16E
:2026000094F86C2084F86D209907A4F8726016D5022016F0DFF800283FF45BAA238CC3804F
:2026200006720E23037194F83830C3F3C203437294F83A30C3F30203837216F053FE2B79B8
:2026400043F003032B7105236B711823EB7194F87030C3F382032B7294F87030C3F34213CF
:202660006B72B4F872306B8144E7E38C06333B44A4F87230E3E7B4F87220BA1A12043FF58D
:2026800056AF94F86C2084F86D2094F8386094F83A20E58E13F01C0FC6F3C20102F00702F2
:2026A0007BD1A68E13F0E00F17D094F83A50580960F3020584F83A50258E0E35ED00C0F354
:2026C0004000C540B5F5A47F38BF4FF4A475ADB2B5F5A47F28BF4FF4A47594F83800C0F3AF
:2026E000801C6CF3C7109B0784F838000BD4C3B2C3F3C2038B4206D194F83A3003F007034C
:2027000093423FF414AF022016F064F800283FF4E0A9238CC3800E2303710023037294F8CB
:202720003830C3F3C203437294F83A30C3F30203837216F0D7FDA38EB34209D3B3F5A47FB4
:2027400006D8E38EAB4203D3B3F5A47F7FF6EFAEA686E586022016F03DF800283FF4B9A9D9
:20276000238CC38002230371037A43F003030372092343721523C372238E8381E38D0382AB
:20278000E38EC381A38E438216F0ACFD94F8473143F0020384F84731C9E6C3F3820060F375
:2027A000C50684F83860E68D0E36F600C0F34000C640B6F5A47F38BF4FF4A476B6B2B6F55F
:2027C000A47F28BF4FF4A4766CE700BF982B00202DE9F04FC64F8FB09A4602230D9397F9BF
:2027E00028308DF82F20002B834688463E4601DA0C2024E097F879202A234FF0270919FB64
:20280000023917F8093003F00F03012B00F22781D7F8CC50002DEBD107F5867025F049F94D
:202820000446002800F05D8107F5A47025F041F940B9204607F5867125F054F907200FB05F
:20284000BDE8F08F4FF6FF732384AA4BC4F89430637FA56265F386136377B7F82231A385A3
:202860001B23E3852386B7F824316386A24B6363B7F8262194F83830E57762F302030122A6
:2028800062F3C50365F3861365F3C71384F8383094F83930658462F3020384F83930B7F848
:2028A0002811A4F8405061F3C50384F8393094F83A30A4F8445062F3020384F83A30637F6A
:2028C00043F0800363770623A38794F8483065F3451365F3000365F3410384F84830C4E9C9
:2028E0001555A56694F89A30A4F86C5065F3000365F3410384F89A3094F8B230A4F87C50A2
:2029000065F30413A4F8905084F8985084F89950A4F8A05084F8A350C4F8A400A4F8B0500C
:2029200084F8B230A4F8D850A4F8E450A4F8E850C4F83051C4F83451C4F83851C4F83C51C5
:20294000C4F84051A4F8445184F8465116F062FEC7F8CC400EA896F8293010F8092D6BF37C
:20296000020362F3C5036AF3871386F82930D6F88431F3612723B36101210023336225F043
:202980000DF917F8093003F00F03012B69D14FF42773584300F59C70584953A3D3E900238F
:2029A000A0FB0101FDF7ECFCD6E906239A4238BF1A467062934625F0A9F98246B8F1000FA1
:2029C00057D117F8093003F00F035A1E5342534196F828504A4F4B4A63F38615736A86F861
:2029E00028500DF1340915F040055B44CDE9077947D00020CDE90520CDE90303CDE9013050
:202A0000009053460522032114F06EFB022834D00D98B8B902230D933B4B0690CDE907797A
:202A2000CDE90200CDE9040303224AF2FE33009301905346114614F057FB02283CD00D984A
:202A400000283DD0002C3FF4D3AED4F8A4002F4925F048F82E49204625F044F8C8E6002424
:202A600078E7022B0CBF4FF4297340F2FC53584392E70023ACE725F01EFA0D9B022BFAD009
:202A8000C6E7244802951FFA88F8CDE90353A8FB00019123CDE9052503FB081112A3D3E921
:202AA0000023FDF76DFC5346CDE90050052203212846C0E725F0FFF90D9B022BFAD0BEE746
:202AC00096F8283043F0800386F8283096F8E03013F001047FF4B3AE012025F055FC20461D
:202AE000ADE60920ABE600BF8D49FD1A070000003C2A0020AE4101004801480100CA9A3B2F
:202B0000BF1E030079350200E9350200842B0020482B0020002AE7842DE9F047504C94F899
:202B2000E0508CB01F4615F001054FF002030E460B93114603D00C200CB0BDE8F08794F8C9
:202B4000E13060F3C303400860F3020366F3C713062204F1E20084F8E130424E22F06DFDE0
:202B6000BDF850204FF0910AA2FB06010AFB021139A3D3E90023FDF703FC94F8E1309DF8BA
:202B80005420D4F88491C4F8F00062F30513BAB2A2FB06670AFB027784F8E130272300F10B
:202BA0000908C4F8D030C4F8D4902BA3D3E90023C4F8D85030463946FDF7E2FBA0F1270316
:202BC000984594BFC4F8DC80C4F8DC30824625F09DF80BAB0893244BCDE90653234B05939E
:202BE000D4F8DC30B9F1270F2CBF4B4427338046CDE90353304618A3D3E900233946FDF7F4
:202C0000BFFB104619464FF47A720023FDF7B8FB0095CDE901A0434606220321284614F019
:202C200063FA022813D00B9D002D84D194F8E03043F0010384F8E03094F92830002B02DBB4
:202C4000022025F0A1FB284676E725F034F90B9B022BFAD0E7E700BF8D49FD1A0700000076
:202C60003C2A0020002AE784BF1E0300B13502002DE9F84F4FF08052254E057BD6F80495A9
:202C8000D2F81080044615B125F040F805460223C6F804351AF0DAFDDFF874B0DFF874A04F
:202CA00000276368CBF808351AF0D0FDA368A3EB0803A360636843446360237B013773B98D
:202CC000A368002BEDD1124BC3F804951AF0BEFDA068003018BF01204042BDE8F88F25F097
:202CE00015F8294625F014F8B0FBF7F60644606905A3D3E90023A0FB0A01FDF741FB20F01F
:202D00007F408642DCD9DEE78D49FD1A0700000000E0014000CA9A3B2DE9F04F4768344E78
:202D200091B00DF13F0105460DF13E0025F042FB9DF83E809DF83F9024F0E8FF3B690D9048
:202D4000A3FB0634CDE90A34DDE90A0126A3D3E900230024FDF714FBCDE90744254B0593FE
:202D600006958246786920A3D3E90023A0FB0601FDF706FB20F07F401F4ADDE90A67CDE9B1
:202D8000034007232AF07F400021434302FB0133A0FB0201361A194467EB01074FF47A7241
:202DA000002330463946FDF7EBFA2AF07F430290CDE900434A460D9B0321404614F094F948
:202DC00030F0020309D145F6B3110C481EF0B8F830B9A86811B0BDE8F08F6FF04700F9E77F
:202DE0006FF03B00F6E700BF8D49FD1A0700000000CA9A3BA17802008D49FD1A484000205A
:202E00002DE9F347057B044615B124F07FFF0546676817F003007ED027F0030702ABA268F6
:202E2000396843F8041DC0F10406964228BF164632461844216822F000FC1AF007FD019BAA
:202E40003B60636833446360236833442360A3689E1B237BA660002B5DD024F057FF2946B4
:202E600024F056FF3249460060692FA3D3E90023A0FB0101FDF784FA20F07F4086424AD9E5
:202E80001AF0E4FC4FF0FF3002B0BDE8F0871AF0DDFC23681A6863681A6063680433636012
:202EA000236804332360A368043BA360237B08F1010893B124F02AFF294624F029FFB0FB09
:202EC000F8FA8244606932463B46A0FB0901FDF757FA20F07F408245D2D8A268032AD6D869
:202EE000AAB1636821681B6802A840F8043D22F0A4FB1AF0ABFC6368019A1A60D4E901215C
:202F000023680B440A44236000236260A3601AF09DFC0020B8E74FF00108DFF8149002A750
:202F2000D7E90067D9E700BF8D49FD1A0700000000CA9A3B014B186801F094BB74040020B4
:202F400007289ABF014B185C1F20704736650300072808D881F0010101EB4000034B53F84E
:202F6000203003B118470020704700BF00CD002070B5054600F06EFD064600F097F8094C80
:202F800048B1002323700AF077FA28421CBF01232370207870BD0AF075FA2842F1D1002E93
:202FA000EFD1F0E714480020014B1868FFF7E0BF74040020044B10B51C680AF069FA2042AE
:202FC00014BF0120002010BD74040020104B2DE9F0411E6800240746464025464FF00108A6
:202FE00008FA04F33342E0B207D03B4214BF01210021FFF7ADFF0543EDB20134082CEFD1B5
:203000001DB1BDE8F04105F0EDB8BDE8F08100BF7404002070B5134D2C680646FFF7D6FFD5
:20302000B4421ED0286810492E6086EA0004BFF35B8F51E8003F43F0010241E80020002806
:20304000F7D1BFF35B8FDB0703D40839074827F064FE2046FFF78CFF18B1BDE8704005F050
:203060006BBB70BD740400207004002030110020014B1868704700BF74040020012303FA75
:2030800000F0034B1B68184214BF01200020704774040020034B044900221A60C3E90112BC
:2030A000704700BF6804002035CF0000024B002218781A70704700BF154800202DE9F3483D
:2030C00000230193437903F00C02042A08BF9DF8042003F0300304BF42F001028DF8042007
:2030E000102B02BF9DF8043043F002038DF80430C37903F03002102A08BF9DF8042003F00C
:20310000C00304BF42F004028DF80420402B02BF9DF8043043F008038DF80430837903F06D
:203120000302012A02BF9DF8042042F010028DF8042003F00C02042A02BF9DF8042042F01D
:2031400020028DF8042003F03002102A08BF9DF8042003F0C00304BF42F040028DF804202F
:20316000402B02BF9DF8043043F080038DF804309DF8043013F0010C0CD0874A1278D707FD
:2031800008D49DF8052042F001028DF80520834A0121117013F002070CD07F4A1278960772
:2031A00008D49DF8052042F002028DF805207B4A0121117013F004060CD0774A12785507A1
:2031C00008D49DF8052042F004028DF80520734A0121117013F008050CD06F4A12781407CD
:2031E00008D49DF8052042F008028DF805206B4A0121117013F010040CD0674A1278D006F7
:2032000008D49DF8052042F010028DF80520634A0121117013F020000CD05F4A1278910611
:2032200008D49DF8052042F020028DF805205B4A0121117013F040010ED0574A127852060D
:203240000AD49DF8052042F040028DF80520534A4FF0010E82F800E05BB2002B0FDA4E4ABA
:2032600092F90020002A0ADB9DF8052042F080028DF80520494A4FF0010E82F800E0BCF194
:20328000000F09D1444A1278D20742BF9DF8062042F001028DF806204FB93F4A12789707FF
:2032A00042BF9DF8062042F002028DF806204EB9394A1278560742BF9DF8062042F004020C
:2032C0008DF806204DB9344A1278150742BF9DF8062042F008028DF806204CB92E4A12786F
:2032E000D40642BF9DF8062042F010028DF8062048B9294A1278900642BF9DF8062042F0C7
:2033000020028DF8062049B9234A1278520642BF9DF8062042F040028DF80620002B0ADBA4
:203320001D4B93F90030002BBEBF9DF8063043F080038DF8063027F068FF194BD3E900BC2B
:20334000B0EB0B0461EB0C05002C75F1000202DAC3E900010DE0642C75F1000209DBC82C8C
:2033600075F10002F4DA1BF164064CF10007C3E900670122084901A822F038F9642C75F1F4
:20338000000300DA20B1044B0198186004F028FB02B0BDE8F08800BF780400201548002061
:2033A00000000020014B427A1A7070471648002010B5064B064C1A78064902F00F03204673
:2033C00012090EF0A3FF204610BD00BF16480020174800203E650300044A00231370044A5B
:2033E0001370044B01221A7000F0C8BA1E4800201D48002024E60020014B1878704700BF55
:2034000024E6002008B50146012008F0B3FB024B01221A7008BD00BF1D4800207FB50E2250
:2034200000210646684622F035F94FF0FF33CDE9013308F09BFB144C054608F007FC26B9C3
:203440006B7A13B92278022A1BD1027CC3680093C2F3430205F10A0101A822F0EEF8082306
:2034600068468DF80C301FF03CF88DF80D00684603F00CFF00232370044B00221A7004B0F7
:2034800070BD1846F8E700BF1D4800201E48002007B504F027FB30B104F02CFBADF8040081
:2034A000019803F011FF08F061FB0A4A437A002B137803F10103DBB214BF052132218B42B7
:2034C000137002D30020FFF7A9FF03B05DF804EB00F0C8BA1E48002010B50446012000F0C7
:2034E00081FA2379082B03D02C2B01D0032B05D1034B1A78012A1CBF02221A70012010BD01
:203500001D4800202DE9F843B9B145794688841D512D03D085F080030F2B31D823781B09F3
:2035200041D1A378FF2B02D02379FF2B3BD1512D3FD1112000F066FA22E00446082614F8FB
:20354000045BE5E7512D22D1E25C234499785B7841EA024141EA0321002359F82320C2F31D
:20356000120C09EB8302D8B29278D20842EA4C12914208D100F046FABBB25F1DB742E1DD40
:203580000120BDE8F8830133112BE6D1F4E7B8F10F0FF1D8E218E05C9378517843EA002001
:2035A00008F0DCFFE8E7022385F08008DFF81890E3E785F080050F2DE2D8FF214FF6FF703A
:2035C00008F0CCFFDCE700BFB056030008B591B1427941880630442A13D12A2121F0C7FF70
:2035E0000B4B60B10279432A01D0632A07D100221A70012008BD10F8042B0821EBE701225F
:20360000F6E782F080030F2BF3D808F021FFF0E724E600200148CF21704700BF0000C0F952
:2036200000487047FFFF0100014B185C704700BF90650300072810B511D80A4B0A4A185C64
:20364000002340B112F81340B0EB840F4FEA430102D10A44507810BD0133092BF1D100204E
:20366000F9E700BF90650300A1650300094B82B0102894BF33F810301B88ADF804309DF81D
:203680000430002063F307009DF8053063F30F2002B070470066030010289ABF014B185C07
:2036A000FE207047EF65030010289ABF014B185C00207047C065030000487047B365030074
:2036C0000148FF21704700BFFFEFCFFF10B5084A002312F8134084424FEA430102D10A4454
:2036E000507810BD0133262BF3D1FF20F9E700BF4465030000487047266603000148F82192
:20370000704700BFFF8FC3FD00487047D16503001FB514240294044C0194BDF81840009485
:2037200024F005F904B010BD3848002010B5064C20700648FFF766FE2378043B012B9CBFA6
:203740000023237010BD00BF4F4800201F48002010B5064C08222046002121F09BFF0B2348
:2037600023700520BDE81040FFF7E0BF1F48002007B5002000901423034A044912F09AFDAA
:2037800003B05DF804FB00BF3848002074CD0020F7B514461D46BDF8206005F053FC002858
:2037A00000F0D380002E40F0D380042D40F0D3806D4B1B7853BB6D4A6D491360224601932C
:2037C00052F801090860E61C12F8010F002540FA05F101F001010B44022B00F0BF800135E8
:2037E000082DF4D19642EFD1042221460DEB020021F0FCFE68B95F4B1B783BB10822002110
:203800005D4821F047FF0020FFF790FF042003B0F0BD0222214601A821F0E8FE002850D010
:203820006378554A13F0100106D00B2313700023C2F801300520E7E713F0010604D015700F
:20384000C2F801100220DFE713F0020104D003201070C2F80160D7E7180705D52C23137094
:20386000C2F801100620CFE75B0706D5632313700023C2F801300720C6E7482313702178F2
:203880008B01C80000F0100003F04003034301F004000343C1F3C0000343880200F4804025
:2038A0000343C80100F480500343080100F480604900034301F480710B43C2F80130012043
:2038C000A2E70222A1180DF1060021F08FFE00289CD0A5782849E0784C23AA030B70EB02E2
:2038E0002F0103F4805302F480426E001A4307F040031A4306F010031A43AB0803F00403A1
:203900001343C5F340152B4307F4806782043B4306F4807602F4802233431343C20302F4E1
:2039200080321343020502F480021343420402F480121343820502F08062C004134300F021
:2039400080700343C1F80130B9E76FF007005EE76FF006005BE76FF00C0058E70422002164
:20396000034821F097FE46E74C4800207C040020384800204F4800201F4800200E4B0F4847
:2039800010B500241C700E4B1C700E4B12221A600D4B32221A700D4B14221A700C4B1C7095
:2039A0000C4B1C700C4B1C7023F0D8FF0B4B0C4A1C60C3E9012410BD4F480020B0CD00203D
:2039C000514800207C04002059E6002058E600204C4800204D48002050480020000500208B
:2039E00071D70000044B1870044B14221A70044B01221A70704700BF5148002058E6002010
:203A00005048002010282DE930480E4B14D8D3E900450122824044EA020B45EAE27CC3E989
:203A200000BC094B03EB8003DA78084B1A54084B14221A70BDE8308800200021C3E9000194
:203A4000F5E700BF08000020B05603002748002058E60020024B002218781A70704700BFAE
:203A60004D4800202DE9F74FFFF79EFA634C644F00285AD02378634D2BB9012323700323E7
:203A80002B70FFF765FE2B784BB13A78322A03D1013B2B70FFF75CFE5B4B00221A7023789D
:203AA0005A4E9BB1584B1B7883B173794BB9337A013BDBB2FD2B04D9737A013BDBB2FD2B5F
:203AC00004D800232370524B01221A70514C524D94F800A096F8049095F80080BAFA8AFB3A
:203AE0004FEA5B1B09F00109B8F1000F08D068461DF0E4FE8046D0B94FF0000800232B7093
:203B0000072246494648454D21F070FDE0B107222946434821F091FDCB4539D03379BAF18C
:203B2000000F32D023F0010331E02070B7E7082269463C4821F05AFD0028DDD008226946AB
:203B4000384821F07AFDD9E7CB45E7D1B8F1000F1ED1354A1368112B10D80133122B13602C
:203B60000CD104220021294821F094FD082200212E4821F08FFD0420FFF7D8FD3B78DBB182
:203B8000013B3B7003B0BDE8F08F43F0010333712749BFF35B8F51E8003F43F0010241E8A9
:203BA00000200028F7D1BFF35B8FDB07D1D40839204827F0B2F8CCE73222D5E900013A70F8
:203BC0001D4F1E464FF0010CDA5D52B1013AD2B2DA5532B90CFA03F2D243104001EAE27118
:203BE00001260133112BEFD10EB1C5E900012378002BC7D0013B2370C4E700BF4C480020B6
:203C000059E600204E48002050480020384800204D48002058E60020514800200800002043
:203C2000454800203D4800207C0400201F4800200805002030110020274800201FB510F01A
:203C4000B3FB00230122ADF808308DF80920CC22ADF80A204FF48E72ADF80C20009302225D
:203C6000034902A822F0F8FD05B05DF804FB00BFF45603001FB510F097FB00230122ADF8E1
:203C800008308DF80920CC22ADF80A204FF48E72ADF80C2000930322034902A822F0DCFDD4
:203CA00005B05DF804FB00BF0457030007B5064B0649186800909B88ADF80430684610F0C8
:203CC00099FB03B05DF804FB70560300A9B9020013B513460446B0B904220DEB02011846C9
:203CE00021F0F4F8042805D1084B019A1A60204602B010BD002802D1044B1860F8E7F7DD03
:203D00006FF00400F4E76FF00600F1E70C05002001480CF0C9BD00BFBCCD002008B509F00E
:203D20008DFF09F085FF074B18700EF04DFC0FF0AFF80EF03DFE05F071FA0348BDE80840E2
:203D400019F07AB952480020D531010038B56348634C1CF0C3FA436820605D68112201230F
:203D60000021A84720684368112200211C680123A04706F0ABFBFFF7D1FF002010F018F98A
:203D80000CF00AFE01F0AAFD0AF0DCF903F0DEFF00F02AFC00F0C6FC02F0ACFB06F002FB94
:203DA00005F0A6F805F020FE08F0B6FD06F064FC09F044FCFFF7ACFF4A480CF075FD00285A
:203DC0004FD149480CF070FD00284AD147480CF06BFD002845D146480CF066FD002840D12F
:203DE00044480CF061FD00283BD143480CF05CFD002836D141480CF057FD90BB40480CF0F2
:203E000053FD70BB3F480CF04FFD50BB3E480CF04BFD30BB3D480CF047FD10BB3C480CF088
:203E200043FDF0B93B480CF03FFDD0B93A480CF03BFDB0B939480CF037FD90B938480CF0C0
:203E400033FD70B937480CF02FFD50B936480CF02BFD30B935480CF027FD10B934480CF0F0
:203E600023FD002001F02EFE0CF0DCFC0AF058F909F07AFC09F03CFD09F078FB002001F0A8
:203E800021FE2C4B1B783BB11EF017FD09F048FD09F076FD09F06AFD1DF0F3FC05F094FF5D
:203EA00002F012FC02F0F8FE02F0BEF8224810F027FC07F0B3FC08F085FB01F061FC00F089
:203EC00085F810B11D481FF0CDF8FFF7B7FEFFF7EDFEBDE8384006F025BD00BF936603002F
:203EE00010050020CCD60020E4D60020D0DB002030DC0020C0DC002018DC002088DB0020A7
:203F000060DC002078DC002000DC0020D8DC0020F0DC002058DB0020A0DB002070DB0020BC
:203F2000E8DB0020A8DC002090DC002048DC0020B8DB002052480020D4CD00209A660300F9
:203F400008B501F065FD08F0C3FB10481FF08AF808F0CCFB0E481FF085F80E481FF082F832
:203F600003F0DCFD1EF06AF8FFF7F0FE012001F0C3FD1CF0B3FF6FF0050127F049F80020B4
:203F800001F0A0FD06F0A8FA30BFF8E73C660300506603006D66030001481CF0A5BF00BF81
:203FA00014050020054B064A18680649436810B41C68054BA44610BC604700BF8005002055
:203FC000245703002C0500201C57030038B52B481CF084F9044610B94FF0FF3038BD2848CD
:203FE0001CF07CF9274B18600028F5D0264B274D1C601F220021C3E90121254A4FF4807036
:20400000C2E9005093602348234BC8221860851800F5C870C3E90252C3E904025A601F48DA
:204020001F4B8518C3E9000200F5C870C3E90252C3E90402636813221D6820463223A847BD
:204040000028C9D11749184B4B604FF400238B606368DB68002BBFD0012220469847014668
:204060000028B9D163681B69002BB5D0132220469847003018BF01204042AFE793660300D9
:20408000AA660300800500203805002040420F002C0500205348002068050020AB4A0020CC
:2040A000500500204405002099DF000038B504460D4601F04DFBB0F5806F1BD3152C25D926
:2040C000163CE4B20D2C21D8124B103403EB4404A3882A78990863F3010261F383022A70B5
:2040E000C3F30B13142253432A6863F31F122A60002038BD1B2C09D91C3CE4B2072C05D841
:20410000044B083403EB84046368E2E76FF02200EFE700BFAB4A002070B503788AB00446BB
:204120000E4607AD032B20D8DFE803F002191B1D1149284621F0FEF962780492A278039255
:20414000E27802922279019262790092A37905950A4A1B2130461EF092FF0AB070BD084943
:20416000E7E70849E5E70849E3E7084A0A2128461EF085FFE0E700BFB0660300D9660300DB
:20418000B7660300BE660300C8660300D2660300014B1868704700BF84050020034B1868B3
:2041A0000328CCBF00200120704700BF8405002010B588B00C4622F01AFC01A9FFF7ACFF27
:2041C0002CB9044A1368032BDCBF0133136008B010BD00BF8405002000B589B022F007FCD1
:2041E00001A9FFF799FF054A1368002BC4BF03F1FF33136009B05DF804FB00BF8405002001
:204200002DE9F0438FB00E4617469846054601F0A5FA8146FFF7CCF804AC03230722CDE976
:204220000032CDE9029002230B4A282120461EF026FF204621F0B6F9BDF85830009380B280
:20424000CDE9014043463A463146284623F06FFB0FB0BDE8F08300BF026703002DE9FF41A4
:204260000B4C0546204698460E46174621F09AF9BDF82830009380B2CDE9014043463A4631
:204280003146284623F053FB04B0BDE8F08100BF88E600202DE9FF410B4C05462046984685
:2042A0000E46174621F07EF9BDF82830009380B2CDE9014043463A463146284623F037FBC9
:2042C00004B0BDE8F08100BF646603002DE9FF410B4C0546204698460E46174621F062F92F
:2042E000BDF82830009380B2CDE9014043463A463146284623F01BFB04B0BDE8F08100BF55
:204300006EE600202DE9F04188B09846002305ACCDE9053307930E4B009305460E46174688
:204320000C4B0D4A0B2120461EF0A9FE204621F039F9BDF83830009380B2CDE9014043467D
:204340003A463146284623F0F2FA08B0BDE8F08183E6002069E60020FC66030010B50E4CAF
:2043600023784BB10D4821F01DF90C4902460C480CF004FA00B920700A4C23784BB10A48B7
:2043800021F010F90849024608480CF0F7F900B92070002010BD00BF044D002088E600203A
:2043A00017670300034D002083E600202267030001287FB50E46154604D06FF0010420464D
:2043C00004B070BD4449306821F0F4F8044678BBCDE9010003900C2201A9284620F076FD4A
:2043E0000646411E01A81DF01BFB0C2E08D138B1324601A9394821F020F9394B1C70DEE7A8
:204400000C2201A9284620F07EFD0446014601A81DF006FB0B2CD2D10028D0D00C2201A909
:204420002E4821F00AF92E4B01221A700024C6E72C49306821F0BEF80446002832D1019021
:204440008DF80800052201A9284620F03FFD04AA431E1A44064612F80C1C00290CBF194606
:20446000014601A81DF0DCFA022E4FF0050201A905DD20B11C4821F0E0F81C4BBEE72846CF
:2044800020F041FD0446014601A81DF0C9FA022C95DD002893D0052201A9134821F0CDF897
:2044A000124BC1E73068124921F084F80646002883D101908DF80800052201A9284620F042
:2044C00005FD041EFFF67BAF052201A9094821F0B4F8344673E700BF8C71030088E6002099
:2044E000044D00202667030083E60020034D00202D67030069E600200048704764660300F0
:20450000004870476EE600200048704788E600200048704783E600200048704769E60020A5
:2045200038B5054621F03EF80446014628461DF077FA0B2C0ED168B10C22294607480CF068
:204540001DF9044620B90C222946054820F0FCFF204638BD6FF01504FAE700BF1767030039
:2045600088E6002070B5054621F01CF804460146461C033C28461DF053FA012C0ED868B1F2
:204580003246294607480CF0F9F8044620B932462946054820F0D8FF204670BD6FF01504AF
:2045A000FAE700BF2267030083E6002070B5054620F0F8FF461C033801280DD8324629463D
:2045C00007480CF0DBF8044620B932462946054820F0BAFF204670BD6FF01504FAE700BFF2
:2045E0002967030069E6002008B5044823F0B6F90348BDE808400CF057B900BFECCE002011
:20460000F8CE002070B514461D46BDF8106004F019FDA0B1B6B9142D17D12A460C4920468F
:2046200020F0E4FF28B9204609F052FD00B9142070BD2378FE2BF6D06FF01200F8E76FF0A5
:204640000700F5E76FF00600F2E76FF00C00EFE7346703000146082201481DF069BC00BFAF
:204660003CD1002007B502A9042241F8040D03481DF05EFC03B05DF804FB00BFA0D100202D
:204680000146082201481DF053BC00BF54D200200146142201481DF04BBC00BFB8D20020FC
:2046A00001460A2201481DF043BC00BFF4D200201FB568461DF051FC1022694602481DF079
:2046C00037FC05B05DF804FB80D300201FB501F03FF8B0F5806F34BF00240C2401A81DF09E
:2046E00063FC224601A902481DF022FC04B010BDE8D4002001460E2201481DF019BC00BF16
:20470000BCD3002001460E2201481DF011BC00BF70D400200146082201481DF009BC00BFE2
:20472000ACD4002008B5034823F018F9024B01221A7008BD24D50020054D002008B507F0AF
:20474000D5FF02481EF08EFC002008BD2276030010B50B495068144620F02CFF30B90120B3
:2047600006F0AEF980F00100C0B210BD0549606820F020FF0028F3D06FF01500F5E700BFAD
:20478000B9760300FE6A030010B514495068144620F010FF014630B9012006F0DBF880F09F
:2047A0000100C0B210BD0E49606820F003FF01460028F2D00B49606820F0FCFE014610B921
:2047C00006F01CF9EBE70849606820F0F3FE10B906F060F9E3E76FF01500E3E7396E030018
:2047E000DF830300B9760300FE6A030008B5034A034B00211FF084F8002008BD3E77030016
:2048000081660300F0B593B00C4606466846556809F03EFC022C3AD1284620F0C3FE0428E6
:2048200014D8102205A9284620F0E8FDB0F5803F03D36FF0150013B0F0BDFE238DF8003055
:20484000ADF80100684609F043FCF4E7284620F0A9FE3228EDD100242646102205A92846D6
:20486000059620F0CBFDFF28E3D80DEB0403D870059BAB42DDD01A782AB9102CD9D10134D2
:20488000112CEAD1DEE72D2A08BF5D1CF7E7012CCFD19DF803201149114F05A80DF036FDCA
:2048A0000DF1030500240DF11603181915F8012F394603340DF02AFD302CF4D1BDF8013068
:2048C000084A002130461FF01BF8304605AB064A00211FF015F80020ADE700BF86690300B5
:2048E000856903008B6903009D69030070B5144605460A220021606820F080FD061E02DA5B
:204900006FF0150070BD0A220021A06820F076FD0128F5D800F00101304603F0AFFD0028F9
:20492000F0D00346034A284602211EF0E9FF0020E8E700BF3F86030070B503298AB005464E
:2049400016462AD10A220021706820F057FD2828044608D92B4A0346022128461EF0D0FFD0
:204960006FF0150416E010220021B06820F046FDB0F5803F034601D3234AEDE781B2E0B284
:2049800004F0DEF8044628B10346204A022128461EF0B6FF20460AB070BD01292CD11C4A49
:2049A0001C4E00211EF0ACFF002407A9E0B203F0BDFB0146D8B99DF82030C3F3810203F0B9
:2049C000030303939DF82430059203F00103089A0293BDF81E300193C2F31B12BDF81C3013
:2049E000049200933246234628461EF089FF0134282CDAD10024CDE7074A02211EF080FF9C
:204A0000AEE700BFB6680300C16803003F860300CC680300F46803001969030038B51446CB
:204A200000210A22606820F0E9FC051E11DB0A49A06820F0BFFD50B10849A06820F0BAFD15
:204A400038B901462846BDE8384003F021BD0121F8E76FF0150038BD396E0300DF83030049
:204A600013B50446684600F05DFCBDF800300B4A204600211EF044FFBDF80230084A20467C
:204A800000211EF03DFF2046BDF80430054A00211EF036FF002002B010BD00BF4867030099
:204AA0005A6703006F67030010B50446FEF780FC034A0346002120461EF022FF002010BDA0
:204AC0003E77030010B5044600F048FE034A0346002120461EF014FF002010BD3E770300F6
:204AE00010B50446FFF708FD034A0346002120461EF006FF002010BD3E77030010B50446C8
:204B0000FFF7FEFC034A0346002120461EF0F8FE002010BD3E77030030B5556887B00446BC
:204B200001A809F0B5FA0A226946284620F066FC009BAB4208D1114A204602211EF0E0FE38
:204B40006FF0150007B030BD872801D90C4AF3E706AB03EBE00200F007030120984012F806
:204B6000113C584002F8110C01A809F0B1FA00280CBF00206FF00B00E4E700BF7868030002
:204B80008E680300022938B505460C4606D0094A02211EF0B5FE6FF0150038BD506820F029
:204BA0004DF90028F9D02846034A21461EF0A8FE0020F2E7196903009267030073B50546FB
:204BC00001A905200BF0A2FD044650B10346134A022128461EF094FE6FF01504204602B0BA
:204BE00070BD01460E4B0F4A28461EF089FE01982146826820F0ADF80646019820F062F89E
:204C00002EB9094A214628461EF07AFEE6E73346024A022128461EF073FEDFE7A467030089
:204C2000AB670300B6670300C5670300022910B51346044602D96FF0150010BD10D10A2254
:204C40000021586820F0DAFB1F28F4D8FEF716FA064A0346204600211EF052FE0020ECE705
:204C6000FEF706FA024A0346F4E700BFEA7A030070680300022973B51346054622D811D1FB
:204C80000A220021586820F0B9FB0E281AD803F0ADFD0E4A0346002128461EF031FE0020F1
:204CA00002B070BD0A4E0024204603F09FFD2346009032460021284601341EF021FE0F2C07
:204CC000F2D1ECE76FF01500EAE700BF7F67030087670300022910B504460FD804D15068B2
:204CE000BDE81040FFF762BCFFF716FC054A0346002120461EF004FE002010BD4FF0FF3019
:204D0000FBE700BF3E770300022938B504460D4616D80BD15068FFF725FC30B120460A4A51
:204D200029461EF0EDFD6FF0150038BDFFF7F0FB064A0346002120461EF0E2FD0020F4E7BA
:204D40004FF0FF30F1E700BF9C6803003E770300022938B504460D4616D80BD15068FFF762
:204D6000DFFB30B120460A4A29461EF0C9FD6FF0150038BDFFF7C8FB064A03460021204639
:204D80001EF0BEFD0020F4E74FF0FF30F1E700BF686903003E7703002DE9F04794B014A970
:204DA0000123074641F8343D08A80FF05DF9DFF89080DFF89090DFF890A008AC0026079B72
:204DC000B34203D8002014B0BDE8F08723780AAD032B27D8DFE803F0022022241449284697
:204DE00020F0A8FBA379059562780492A2780392E278029222790192627900921B210D4A0F
:204E00000DA81EF03CF90DAB0B4A002138461EF077FD01360734D2E70849E0E75146DEE7CD
:204E20004946DCE742460A2128461EF028F9D9E7B0660300D96603003E770300B7660300DD
:204E4000D2660300C8660300BE66030037B504463F4A00211EF054FD002201212046FFF7E0
:204E60009BFF20463B4A00211EF04AFD002201212046FFF743FE2046374A00211EF040FD03
:204E8000002201212046FFF72BFE2046334A00211EF036FD002201212046FFF759FF2046A6
:204EA0002F4A00211EF02CFD002201212046FFF72BFF20462B4A00211EF022FD00220121EA
:204EC0002046FFF793FC2046274A00211EF018FD002201212046FFF7F5FD244A0021204645
:204EE0001EF00EFD00F034FC054600F031FCC0B2C5F30F2300901E4A204600211EF000FD2B
:204F000020461C4A00211EF0FBFC002201212046FFF7CAFD184A002120461EF0F1FC08F05C
:204F20007DFB164A0346002120461EF0E9FC144A002120461EF0E4FC08F074FB114A0346F8
:204F4000002120461EF0DCFC002003B030BD00BFD6670300DD670300ED670300F667030027
:204F6000006803003C680300146803002D680300236E030037680300516803003E7703005E
:204F8000616803007F670300F7B50023032904461546CDE9003307D0334A02211EF0B0FCA2
:204FA0006FF0150003B0F0BD9668304620F0FAFAC3072DD410282BD8324681198A421CD1D4
:204FC0000022904228D846083246694668680BF0D5FB20B1254A022120461EF091FC3246F1
:204FE000694668681FF067FF0028DBD02046204A02211EF085FC0020D4E712F8013BA3F1B3
:205000003007092FDAD943F02003613B052BD5D9184A02212046C1E7B3185B78A3F13001A8
:20502000092910D8CBB2B15CA1F130071B01092FDBB210D8F9B202AF07EB52070B4407F845
:20504000083C0232BDE7A3F14101192994BF373B573BDBB2E7E7A1F14107192F94BF373985
:205060005739C9B2E7E700BF1969030043690300536903002F69030073B5054601A90320CA
:205080000BF044FB044650B10346134A022128461EF036FC6FF01504204602B070BD014610
:2050A0000E4B0F4A28461EF02BFC0198214682681FF04FFE064601981FF004FE2EB9094A25
:2050C000214628461EF01CFCE6E73346024A022128461EF015FCDFE7A4670300CE67030087
:2050E000B6670300C56703002DE9F047854E864C8AB008F0F5FE3288B2F5806F4FF00003B8
:20510000C0F0F78023700423637063687E480133022103256360E170A5701CF055FCA06045
:2051200002F0C6FE2073C0F30720607302F000FFA07303A803F0BAFC102206A9734820F075
:205140007CFA3388B3F5806F0BD30C220DEB02016F4820F072FA29466D481CF035FCC4F830
:20516000B60002F0B1FE030AE077000C84F8203084F8210002F0BAFE84F8220002F0C4FE03
:20518000644F84F8230000255FFA85F8404608F0C3F907F8010F404608F0C4F90135082DD3
:2051A0003872F1D100252C2705F12400C0B208F0D1F96319FF2805F1010514BF83F844008C
:2051C00083F84470042DEFD10025162705F11C00C0B208F0BFF96319FF2805F1010514BFA7
:2051E00083F8480083F84870082DEFD10025162705F11600C0B208F0ADF9FF287ED0631955
:2052000083F866000135062DF2D108F011FA06460F461CF038FB58B308F016F9C0F3850054
:205220000125A0F12002C0F1200305FA02F925FA03F349EA030905FA00F808F00BF9C0F3CD
:205240008500A0F1200CC0F1200105FA0CF325FA01F10B43019305FA00F30093DDE90023DB
:2052600042EA080243EA090326EA020627EA0307C7F3031384F82630330F43EA071384F8E5
:205280002730330A84F82930C6F3014384F82A30C6F38343002584F8286084F82B30C6F39A
:2052A00085560B2309211C4884F82D3084F8245084F8255084F82C601CF086FB0E21206356
:2052C00016481CF081FBE066154802F037F8012395210D4884F8A85084F8A9301CF074FBB1
:2052E000C4F854020AB0BDE8F0870423237001230AE7B2F5817FF8D2237005E7631983F810
:2053000066707FE72E4700205348002062480020FD480020864800205F480020874800202E
:20532000C3480020024A11689288016082807047284700202DE9F04F85B080460F460E22E5
:205340000021684620F0A6F900252C462E4607EB460A1DF80530BAF80C90C9F3810909FAA1
:2053600004F25FFA86FB13430234594648460DF8053007F087FF072C59464846C4BF0135D4
:20538000002407F07FFFBAF80C301DF80520C3F38103A3400234072C43EA020306F1010696
:2053A0000DF80530C4BF00240135082ECFD107F14409102619F8010B1DF80530C0F38100EA
:2053C00000FA04F213433146023401360DF80530F6B207F057FF072CC4BF01350024222E14
:2053E000E8D107F1560919F8010B1DF80530C0F3810000FA04F213433146023401360DF8D3
:205400000530F6B207F03EFF072CC4BF01350024262EE8D1434B1B88B3F5806F35D207F197
:205420005A0919F8010B1DF80530C0F3810000FA04F213433146023401360DF80530F6B262
:2054400007F020FF072CC4BF013500242C2EE8D1002606F1080307EB830306F12C0158688F
:205460001DF80530C0F3810000FA04F213430234C9B20DF80530013607F004FF072CC4BF96
:2054800001350024082EE4D11BE0002606F1100307EB430306F1260198881DF80530C0F329
:2054A000810000FA04F213430234C9B20DF80530013607F0E7FE072CC4BF013500240E2EDB
:2054C000E4D1002606F10C0307EB430306F1340198881DF80530C0F3810000FA04F21343A3
:2054E0000234C9B20DF80530013607F0CBFE072CC4BF01350024042EE4D16B46424602ADEB
:205500001C4603CCAC4210605160234602F10802F6D120681060A3889380404605B0BDE808
:20552000F08F00BF2E4700202DE9F0437C487D4F7D4C93B01AF0D2FE012200210646794888
:2055400025F068FD794801F0F9FE784801F0F6FEFFF7CAFD012000F0B5FA4FF4AF61384635
:205560001BF0EEFC724D90B1012002F001FB002002F0FEFA2B78022B05D800F089F92B785B
:2055800001332B70E6E7032BE4D10423F9E72B7803B1287002F064FE736813229D6800210C
:2055A00007AB3046A847079D01202DB102F0E0FA002002F0DDFACDE702F0EAFAFEF7F2FC0F
:2055C0008046284602F0E4FAB8F1000FC2D106F05FF906F0A5FC1CF05CF901F0DFF8FFF778
:2055E00083FD544BB4F84E221988204691424FF0020118BF1A801CF0E7F9A368984208D139
:20560000228893B2B3F5817F4B4B08BF4FF482721A801E2149481CF0D7F9952120461CF0F1
:20562000D3F9D4F85432984204D01CF0A5FF03F09FFC8FE7DFF81491002509EB05084046C2
:205640001CF06EFF30B140461CF056FF10B1404606F014FA0E35B5F5E07FEED1384A138896
:205660002146013302A81380FFF764FE0AAB02AA04AD9E46106851689C46ACE80300083220
:20568000AA426346F6D12868CCF80000AA88ACF80420704602F05AFC02A807F043FE0EAAC8
:2056A00002AB9646186859689446ACE803000833AB426246F6D11868CCF800009B88ACF80D
:2056C0000430704602F090FC684607F03BFE0098019908AB03C308A802F0D4FC94F8491280
:2056E00094F84822174B42EA01221A8094F84B1294F84A2242EA01225A8094F84D1294F8E8
:205700004C2242EA01229A80E278A37843EA02230D4A138000F07AF803F00EF887E700BF79
:205720009366030014050020AB4A0020C3480020064D0020344700202E470020B74A002030
:20574000324700202847002030470020334B0020014B1888704700BF2E47002010B5054BE0
:20576000054C1A880549D3B22046120A0CF0CEFD204610BD30470020074D00203E65030036
:205780007FB500236FF00602CDE90232CDE90433CDE900334FF40062074B084908481BF0E8
:2057A000E1FC084B084918601BF06AFC07B05DF804EB1CF06CB800BF29F5000058540020AB
:2057C000880B00202C0C0020826B030010B50E4AB2F8484288B000230E2B1BBF03F13001EA
:2057E00002EB4101ADF81C40087A1EBF497A40EA01212DF8131001330F2BEDD1684603F0F6
:2058000005F808B010BD00BFAB4A002070B5FFF79FFFB0F5806F18D2FFF79AFFB0F5827FC6
:2058200031D30023194A184601219C1894F86040E40748BF01FA03F403F1010348BF204338
:20584000082BF2D180F00F0017E000210F4E012408468B19042293F8605001231D4202F170
:20586000FF3218BF20439B0012F0FF02DBB24FEA4404F3D101310829EBD1FDF7CBFBBDE8CF
:205880007040FFF7A3BF0020F7E700BFAB4A002010B50A481AF022FD044668B10022112137
:2058A0001CF0BAFB64201BF0CDFA204601221121BDE810401CF0B0BB10BD00BF9366030022
:2058C00008B505481AF00AFD28B100221121BDE808401CF0A1BB08BD9366030008B5054860
:2058E0001AF0FCFC28B101221121BDE808401CF093BB08BD936603002DE9F84F344E354F0D
:20590000B14633780BB1013B337099F8003093B93978022389F8003000294ED12E4B1A7863
:20592000002A0CBF012200221A702C4B08BF012118681CF07AFB3C78002C3ED1DFF8C8A014
:20594000DFF8C880264D4FF47A7150461BF0F8FA5FFA84FB40B935F8143001339BB250469B
:2059600025F814301BF0C0FA35F8142098F800301C4904EB430331F8133093424FF00103C2
:2059800021D23B701849194B1948BBF1000F08BF19461DF067FB98F8003093B198F800203F
:2059A0001449154B012A08BF194614481DF05AFB35F8141012481DF055FB64201BF042FA48
:2059C0009FE71049F1E7002CF7D11C46BAE700BF114D00200F4D0020124D0020480C00206D
:2059E0003647002020640300A26B03009D6B0300B86B0300A66B0300B16B0300D26B0300CF
:205A0000E36B0300AC6B0300300C0020104D002038B521492148224D1BF032FB21481AF068
:205A20005DFC0024204B286021461C701CF0FDFA2868436804221D6821460123A8471B4B3A
:205A40001B4802221A701B4B012211461C7025F0E1FA01221146184825F0DCFA4FF47A71E6
:205A600013481BF06DFA90B94FF47A7112481BF067FA014658B9114B0422187010481FF053
:205A800009FE0D481BF030FA09481BF02DFA0348BDE838401BF004BB8A6B0300640C002038
:205AA000480C002093660300124D0020114D00204C0C00200F4D0020300C0020104D0020AC
:205AC00036470020094B1B7810B504466BB94FF47A7107481BF034FA38B9064B23F81400E8
:205AE0000348BDE810401BF0FFB910BD0F4D0020300C00203647002010B54FF47A71044624
:205B00000C481BF01DFAA0B94FF47A710A481BF017FA014668B9094B09481C7004221FF04C
:205B2000B9FD05481BF0E0F90248BDE810401BF0DBB910BD4C0C0020300C0020104D002082
:205B40003647002013B50A4A0C2343430446D018D15C40680123009348F205024FF6FF7321
:205B60001CF0ACFE034B23F8140002B010BD00BF785903005454002013B50B4A0C23434346
:205B80000446D018D15C40680123009348F205024FF6FF731CF092FE044B33F814301B1AC0
:205BA0005842584102B010BD78590300545400200379016043F001036FF3410303718B7965
:205BC0004A7AFF2B30B5CC792DD003796FF38303037103799D074CBFC3F381030423FF2C21
:205BE00080F8223032D003796FF304130371FF2A037932D0022262F34613037103791B4AA2
:205C00006FF3C71303714FF4A853C38047F6FF7303840023C0E9042390F823306FF30003EA
:205C200080F8233030BD8B7AFF2B01D1FF2A04D00379022565F38303CAE7FF2C02D10B7AF9
:205C4000FF2BC6D0037943F00C03C1E70B7AFF2BCDD0037943F01003C8E78A7AFF2A01D063
:205C60000122C8E76FF34613C7E700BFE040FDFF2DE9F04F0379DD078BB004468A4640F1D3
:205C8000C78100250D7002F0BBFD8146002800F0BF8163798DF814302368187902F096FE0A
:205CA000B4F906806389ADF8183010F5004F2081A0EB0808E37A04D1012262F38303E372C3
:205CC00007E047F6FF72904265D065F38303E372A946236898791CF0D7FCA37A60F3010317
:205CE000A3722368587A1CF0CFFCA37A60F38303A3722368987A1CF0C7FCA37A60F305135C
:205D00006FF38713A372E37A03F0FC036FF30713E372022204F10A0106A81FF067FC257970
:205D20000390A8074CBFC5F38105042525F06DFA94F822B0AB4506460F4609D0B64884F8F1
:205D4000225082194FF0FF3141EB0703C4E90423D4E90401B14B301A67EB0101CDE90001AA
:205D60001868596807AA03C2197A117022894FF47A7112FB01F207A84FF4807192FBF1F22C
:205D8000A7490CF0C3FA032D07D8DFE815F00F000F004700280102228FE79DF8142002F09C
:205DA000E2026FF341028DF814206DE0B9F1000F19D09DF8142042F004028DF814209DF863
:205DC000142002F0E6026FF341028DF8142015B1D2B2520758D52279D3061AD49DF814205C
:205DE00042F00102DFE79DF81420510705D5B8F1000FE4DA69F38202DFE7B8F18E0FDEDD90
:205E0000DDE9002387480021904271EB0303D0DBD5E79DF8142042F00202C4E7B9F1000FAB
:205E200000F0B38094F8232042F0010284F823209DF8142002F0E1026FF300028DF81420C1
:205E40006279110708D44EF6602290194FF0000343EB0701C4E9060194F82320D20713D548
:205E6000217901F06002202A40F09F809DF814200B0642F008028DF8142005D5D4E906012F
:205E8000864277EB0103A9DAAB4510D16379D80605D59DF81420D10601D4C4E904675A07FE
:205EA00005D59DF814305B0701D4C4E90467B4F92020B4F9085047F6FF739A4208BF2584F3
:205EC0000122611D05A8B4F920601FF08FFB002800F095809DF814106379C1F38001C3F301
:205EE00080038B4206D023689879FF2802D0002202F082FA9DF814106379C1F30011C3F347
:205F000000138B4206D02368587AFF2802D0002202F072FA9DF814106379C1F3C001C3F335
:205F2000C0038B4206D02368987AFF2802D0002202F062FA9DF81410637901F0010103F07A
:205F400001038B4206D02368D879FF2802D0002202F052FA9DF814106379C1F34001C3F325
:205F600040038B4206D02368187AFF2802D0002202F042FA9DF81430637102F033F90123E6
:205F80008AF800302389238442E094F82320D00706D5B8F1000F7FF74BAF69F3000245E7A7
:205FA00018F18E0FFFF63EAF42E7402A0DD1DDE900231C480021904271EB0303BFF664AF7E
:205FC0009DF8142042F01002EDE6602A7FF45CAF9DF8142042F008028DF81420E7E72179B3
:205FE0009DF8142011F0100102F0E30204D142F0010261F34102D6E602F0E2020BE7AD1B02
:20600000002DB8BF6D427F2DB9DC039B002BB6D10BB0BDE8F08F00BFE040FDFFFE6B030076
:20602000906E03001FBF02002DE9F84FDFF8BC802B4CDFF8BCA00025C1460AEB4517294976
:2060400038465FFA85FB25F07FF80121584607F0C1F9282610F0030306FB058607D0022B08
:2060600007D1C0F38500183008F048F808B9FF2363720021584607F0ADF910F0030307D09F
:20608000022B09D1C0F38500183008F037F818B9FF23A371E3712372A379FF2B1ED1A37A10
:2060A000A3F1FF0253425341282202FB059283F00103117963F30001117130462146FFF797
:2060C00077FD01354FF47A72394607481BF000F9032D04F10B04B0D1BDE8F88F0023E3E747
:2060E0006FE90020BD0101003011002010000020080D0020022870B5054614D804B20B4814
:2061000004EB840600EBC6001BF0C0FF084B0949012206465A5501EB4411002206481BF00C
:20612000D7F8304670BD8126FBE700BF10000020134D0020080D002030110020074B5A793A
:20614000510708D493F82D20520704D493F85500C0F3800070470120704700BF1000002071
:20616000074B5A79D10608D493F82D20D20604D493F85500C0F3001070470120704700BFCE
:2061800010000020022813B50C4612D805230B704870094900EB800001EBC00168461BF023
:2061A00057FF08226946A01C1FF047FA0A2002B010BD8120FBE700BF100000207FB5184EEF
:2061C000801B04A9C0F34714282516480023654301F80D3D2844FFF74BFD9DF80320124BF1
:2061E0000AB91A5D92B11148ED106843002201A9C0B21A55FFF7C6FF0A2101A800F06CF990
:2062000020461BF08BFB20461BF08AFB4FF47A7206EB441106481BF05BF804B070BD00BFD0
:20622000080D002010000020134D0020CDCCCCCC301100202DE9F041DFF85880124D134C33
:20624000134E40461BF099FF012729460022204637701BF03DF808F128001BF08EFF05F1FF
:2062600020010022204677701BF032F808F150001BF083FFB77005F1400120460022BDE8F8
:20628000F0411BF025B800BF080D002030110020134D002010000020F8B5064615461C462A
:2062A000BDF8187002F0CEFE88B19FB9022C14D130460EF0CBFD032807D8094B2A7803F808
:2062C000102003EB40036A785A70204601E06FF00700F8BD6FF00600FBE76FF00C00F8E7BE
:2062E000164D00202DE9F0418AB006460F4690461C460EF0ABFD032803D920460AB0BDE84F
:20630000F0810D4A0D4902EB400304AD12F810205B7828460BF0FAFF28461FF043F9BDF8A1
:206320004030009380B2CDE90150234642463946304621F0FCFAE1E7164D00203D6C03003D
:206340002DE9F0418AB006460F4690461C460EF07DFD032803D920460AB0BDE8F0810D4AD7
:206360000D4902EB400304AD12F810205B7828460BF0CCFF28461FF015F9BDF84030009362
:2063800080B2CDE90150234642463946304621F0CEFAE1E7164D00201E6C03002DE9F041E6
:2063A0008AB006460F4690461C460EF04FFD032803D920460AB0BDE8F0810D4A0D4902EBA9
:2063C000400304AD12F810205B7828460BF09EFF28461FF0E7F8BDF84030009380B2CDE9BA
:2063E0000150234642463946304621F0A0FAE1E7164D00200F6C03002DE9F0418AB0064625
:206400000F4690461C460EF021FD032803D920460AB0BDE8F0810D4A0D4902EB400304AD08
:2064200012F810205B7828460BF070FF28461FF0B9F8BDF84030009380B2CDE901502346EF
:2064400042463946304621F072FAE1E7164D0020136C03002DE9F0418AB006460F4690467D
:206460001D460EF0F3FC032803D928460AB0BDE8F081174B13F8102003EB4003092A5878B6
:2064800004AC13D00A2A15D0052A17D12146FFF779FEBDF84030009380B2CDE901402B4613
:2064A00042463946304621F042FADFE7214600F063F9EEE7214600F02FFCEAE703460549DA
:2064C00020460BF023FF20461FF06CF8E1E700BF164D0020316C030013B500240B46024631
:2064E0000094034920460FF0E5FE02B010BD00BF0CD60020014821F031BA00BFC0D600207A
:20650000012837B50B46154603D06FF0010003B030BD0C4918681FF04DF804460028F4D187
:2065200004220DEB020128461EF0D0FC042804D1054B019A1A602046E9E70028A8BF6FF068
:206540001500E4E7526C0300000E0020054A08B5137843F00803137024F057FE024BC3E9B2
:20656000000108BD264D002090000020064A137803F0FD036FF3C3031370044B00221146D1
:20658000187801F039BF00BF264D0020204D0020064A137803F0FB036FF304131370044B8C
:2065A00000221146587801F027BF00BF264D0020204D0020F7B53C4D3C4A2B78127803F001
:2065C000010453400026DF07CDE9006632D50CB324F01BFE364B1860364B1E60062232496D
:2065E00032481FF003F898B106222F492F481FF024F8092306222C49ADF800300DF10200EE
:206600001FF01BF808216846FFF766FF1BF082F903B0F0BD284D2B78D807DFD504222749FF
:2066200027480AF0ABF8234B1C602B7864F300032B70D3E7002CD1D024F0E7FD1E4B1A7852
:20664000D107064609D41A49096842F21070711A814284BF42F001021A701B78DB07BDD55A
:20666000134C1448236815490268F31A1A444FF47A7703F5FA73B3FBF7F30F6802603B4418
:206680000B60104B9A4227460C4605D90023036004220B480AF072F823683E603C22B3FB23
:2066A000F2F3C5F8023099E72D4D0020274D0020FC0D0020E80D0020264D0020000E002059
:2066C0004D6C03009FBB0D0038B5224D224C0622002128461EF0DEFF062200211F481EF06D
:2066E000D9FF06F0BDFEA07006F0C0FEE07006F0ABFEC0F38500207006F0ACFEC0F38500BE
:20670000607006F0A1FEC0F3850006F023FF207106F0A0FEC0F3850006F01CFF104B60712A
:2067200000241C7024F071FD0E4BC3E900010E4B1A7864F300021A700C4B3C221B68B3FB6D
:20674000F2F30B4AC5F802300A4B1C60C3E9012438BD00BF2D4D0020204D0020274D0020FF
:206760001E4D002088000020264D0020000E0020B5050100F00D002008B50B4648B9092213
:206780000A70487006220449981C1EF056FF082008BD0020FCE700BF2D4D00202DE9F047A5
:2067A00024F033FD554E564D8046F0788946FCF765FC2B7860F3000330782B7001F060FB76
:2067C0002B7860F3410370782B7001F059FB2B784C4A60F382032B704B4B1B7813F0020FCE
:2067E000B24605D12978880702D40B43590705D543464C46C2E90034BDE8F087D2E9002349
:20680000B8EB02084FF4FA6269EB03090023424573EB0903F0DA03F04FFF0138C0B20128D9
:206820003A4C03D92B7813F0060808D09AF80200FCF724FC637860F300036370DCE7227862
:20684000012A1FD00AD3022AD6D1627803F00101C2F340028A42CFD062781AE068F3C30348
:20686000B0782B70FCF70AFC63782A7860F30003C2F3000262F3410368F38703637001235D
:206880002370B9E7627803F00101C2F34000884206D061F34102DB076270ADD50023EFE79B
:2068A000B078FCF7EBFB637803F001029042A3D060F30003637024F0A8FC154B1A6842F2CA
:2068C0001071821A8A4282BF62786FF387026270627812F0FC0F627808BF1860C2F38503BA
:2068E000013303F03F0363F38702022B627083D92B7843F008032B700223C1E7204D00201F
:206900002D4D002088000020264D00201E4D0020EC0D00202DE9D84824F077FC224C064687
